:1000000009C016C015C014C013C012C012C010C061
:100010000FC00EC011241FBECFE9CDBF20E0A0E667
:10002000B0E001C01D92A237B207E1F776D013C14C
:10003000E7CF1F920F920FB60F9211248F939F93C9
:10004000809170009091710001969093710080935F
:10005000700012BE9F918F910F900FBE0F901F9056
:100060001895882361F020E030E298B3932798BB7D
:100070009CE09A95F1F700C02F5F8213F6CF0895A8
:1000800087B38C7F87BB87B38C6387BB88B3836060
:1000900088BB88B3837C88BB80E886BD87E086BD4B
:1000A00083B7846083BF83B78D7F83BF89B7846044
:1000B00089BF81E986BF8FE181BD8FE081BD80E08E
:1000C00090E4AAEDB4E480936A0090936B00A0934F
:1000D0006C00B0936D0082ED96E090936300809386
:1000E000620080E090E4AAE5B5E480936600909316
:1000F0006700A0936800B093690084EA9DE0909344
:1001000061008093600089EA93E00197F1F70000B5
:1001100082E3A7DF789412BE0895B2DFC1E0D2E097
:10012000A895B09915C0B19B13C08091650081114D
:100130000FC0C093650088B3846188BBC39882E315
:1001400090DFC0936F00109271001092700012BE89
:10015000B19915C0B09B13C08091640081110FC08C
:10016000C093640088B3886188BBC29884E679DF55
:10017000D0936F00109271001092700012BEB1996E
:1001800015C0B09913C0C0936E0088B3837E88BB3E
:1001900010926F0006C0B19B06C0B09B04C01092C5
:1001A0006E0080916E008111F6CF46C0B19B06C0F3
:1001B000B09B04C0109265001092640080916F00A3
:1001C0008130D1F48091700090917100883027E0E7
:1001D0009207A8F110926F0088B3837E88BB2091AC
:1001E0007000309171008091620090916300281737
:1001F000390711F482E335DF80916F00823009F016
:100200008FCF809170009091710080319E4028F0D6
:1002100010926F0088B3837E88BB2091700030916C
:10022000710080916000909161002817390709F0F2
:1002300077CF82E316DF74CFB1990AC071CF2091D6
:100240006200309163008217930709F069CFD2CF23
:0A025000B099B0CFD1CFF894FFCFE2
:00000001FF
